:020000040800F2
:106000000000012071A200086DA200086DA2000826
:10601000697E00086DA200086DA200086DA200084C
:106020006DA200086DA200086DA200086DA2000814
:106030006DA200086DA200086DA200086DA2000804
:106040006DA200086DA200086DA200086DA20008F4
:106050006DA200086DA200086DA200086DA20008E4
:106060006DA200086DA200086DA200086DA20008D4
:106070006DA200086DA200086DA200086DA20008C4
:106080006DA200086DA200086DA200086DA20008B4
:106090006DA200086DA200086DA200086DA20008A4
:1060A0006DA200086DA200086DA200086DA2000894
:1060B0006DA2000859F400081DFE0008E5FD000867
:1060C000E1FD00080DF6000819FE0008E9FD0008D2
:1060D000F1FD0008EDFD00087DFE00085DFE0008F2
:1060E0006DA200086DA200086DA200086DA2000854
:1060F0006DA200086DA200086DA200086DA2000844
:106100006DA200086DA200086DA200086DA2000833
:106110006DA200086DA200086DA200086DA2000823
:106120006DA200086DA200086DA200086DA2000813
:106130006DA200086DA200086DA200086DA2000803
:106140006DA200086DA200086DA200086DA20008F3
:10615000CDE200086DA2000811CB000817CB0008A3
:106160006DA200086DA200086DA200086DA20008D3
:1061700010B5054C237833B9044B13B1044800E043
:1061800000BF0123237010BD280100200000000083
:106190009855010808B5034B1BB10349034800E0BB
:1061A00000BF08BD000000002C0100209855010828
:1061B000A3F5803A704700BF174B002B08BF134B65
:1061C0009D46FFF7F5FF00218B460F461348144A02
:1061D000121A0AF0A4FC0E4B002B00D098470D4B6E
:1061E000002B00D098470020002104000D000D482E
:1061F000002802D00C4800E000BF0AF05FFC20003D
:10620000290003F0ADF90AF045FC00BF00000800CA
:106210000000000000000000000001202801002014
:106220005C1A002000000000000000004FF09443C2
:106230009868C0F304400C2822D8DFE800F0092158
:1062400021212121071719211B1D1F000F4870470D
:106250009B6803F04073B3F1807F13D0B3F1007FEC
:1062600012D00B4A002B08BF1046704709487047F0
:1062700009487047094870470948704709487047FE
:10628000002070470848704708487047405DC600C6
:1062900000093D000024F400C0EA210180BA8C010D
:1062A0000048E801005A620280841E0040420F004C
:1062B000BFF34F8F0549064BCA6802F4E0621343EF
:1062C000CB60BFF34F8F00BFFDE700BF00ED00E0E4
:1062D0000400FA05024610B500B3114B196888880E
:1062E00090421BD398880024904281BF0120096806
:1062F000988099609868998828B904B198604FF699
:10630000FF729A8009E08A4204D0013101240068BA
:1063100089B2F1E70CB19A80986010BD0020FCE7CB
:10632000500700204FF000639B6A03F17842B2F5FA
:10633000C04F03D21968064A914203D0002303706C
:1063400083607047012202709A689B694260F7E798
:1063500007B0CD5E10B50C4630B90448FFF7E2FF38
:10636000042304302060A380002010BD040200201C
:106370004FF000639B6A03F17842B2F5C04F01D23F
:106380005B6A1847002070474FF000639B6A10B4A7
:1063900003F17844B4F5C04F09D21B6B03F1784484
:1063A000B4F5C04F03D29B6B5DF8044B184740F225
:1063B00001105DF8044B70474FF000639B6A03F1D6
:1063C0007842B2F5C04F07D21B6B03F17842B2F5A9
:1063D000C04F01D2DB6B184740F20110704700003C
:1063E000024BD86880B28002704700BF0080E00F87
:1063F0007FB503466D460E4A02F110062C46106822
:106400005168083203C4B2422546F7D15A1E0DF135
:106410000F010F3311F8010912F8014F844204D122
:106420009A42F7D1012004B070BD0020FBE700BF05
:10643000D00C010870B5194E306858BB184B194C78
:10644000E41A194B1C4424F4FF5424F01F04FFF7F2
:10645000C7FF00F1006084421BD2656BDDB1B5F16E
:10646000006F18D3FFF7BCFF00F10060854212D225
:10647000FFF7B6FF05F1400300F1006083420AD840
:106480002846FFF7B5FF30B1EB6933F0080302D0BF
:106490003460306870BD04F50054D8E7A8010020CE
:1064A0001000002028010020E3750108034B044A76
:1064B0009979117500221A60704700BFEC0D002019
:1064C000E80600200022134630B58BB0D910415C9D
:1064D00003F007042141CC0742BF0AA9891801F83B
:1064E000283C03F1010348BF0132252BEED10023E4
:1064F0000C4CD910415C03F007052941C9075FBF67
:10650000B3FBF2F102FB11310AAD49194CBFD9B20C
:1065100011F8281C0133252B04F8011BE9D10BB01D
:1065200030BD00BF1207002010B5034CA01DFFF7BF
:10653000C9FF0023236010BDEC0D002010B540F210
:10654000E244074A6043136800F5807004FB0131A0
:10655000536801EB500118441160506010BD00BF3A
:10656000E80600200A20D0B50B4CE38C584309F014
:10657000F5FF0646A08C0F4609F0F0FF0022074BFE
:106580000AF056F802460B46304639460AF07AF9C8
:106590000AF060FA2083D0BDE80600200000F43F36
:1065A00010B5094CB4F80710A079FFF7C7FFA3682E
:1065B000B4F80D10054AC3F30F239384D184FFF779
:1065C000D1FF0023236010BDEC0D0020E806002061
:1065D000837DDB0701D5808A7047D0E901239B1AB0
:1065E00044BF828A9B1898B270474369416CDA1D98
:1065F0001439B2FBF1F28069013203EBC2020430BC
:1066000000EB4200DA1CB2FBF1F203EBC2030333EE
:10661000B3FBF1F3023301FB03007047F7B5074604
:106620000E4600257C6CA819644280EA06031C40D3
:1066300003D02C46204603B0F0BDFB6B01225B6902
:1066400001A99847019B0133F4D10435EAE7000022
:1066500003460846EFF3108172B6DB6B014ADB6834
:1066600011601847E40D002000234FF0FF3230B5D1
:1066700044689C4202D10023037230BD016801EBE3
:10668000C30541F833206A600133F2E72DE9F04396
:106690004668002E45D0056898464FF0000CA94684
:1066A000AE4655F83C400CF1010CC4F3130701341D
:1066B00001D0B94217D0B4450EF1080EF1D12F46E2
:1066C000002403E0B44207F1080712D055F8343033
:1066D00001340133F6D1C1F3130141EA0851C7E98E
:1066E0000012BDE8F08341EA0851CEE90012BDE88E
:1066F000F083B8F1030F14D0002303E0B34209F193
:1067000008090ED055F833400133C4F30754032C65
:10671000F4D1C1F3130343EA0853C9E90032BDE8D9
:10672000F08301230372BDE8F08300BF4FF4803291
:10673000064B00209A6641F6713203F51C33DA638A
:10674000012203F50053DA60704700BF009000405B
:1067500041F671320121064BDA6303F50052D16034
:106760000022DA634FF48032A3F518339A6670473B
:10677000000003407047036813F07E0F03D14068A8
:1067800020F07C40704713F078001CBF03F07F03BB
:10679000D81F704737B5054601F10C04436901A9BC
:1067A000012220469847BDF8043001220093694633
:1067B0002046AB69984703B030BD202A0B681EBF46
:1067C0004FF0FF3191408B43590801F055315B1A6E
:1067D00003F033319B0803F033330B44017803EBB0
:1067E00013130A444FF0013103F00F334B43A2EB74
:1067F00013630370704737B5044600251B22011D43
:106800000DF107008DF80750FFF7D7FF63689DF87B
:106810000720B2EBD36F03D123F0784003B030BD33
:106820001B2204F108018DF80750FFF7C6FFA0688E
:106830009DF80730B3EBD06F0ABFC0434FF0FF3075
:1068400020F07840EAE74BF29A22036810B5B2EBE9
:10685000134F044613D19BB2012B13D1FFF7CBFF8B
:1068600001300CD04FF6FF72E068B2EB104F4FEAE8
:10687000104309D180B2C01A18BF012010BD23688F
:10688000013303D00420F9E70220F7E70320F5E7FE
:106890000D4B10B50D4CE41A0D4B1C4424F4FF5461
:1068A00024F01F04FFF79CFD00F10060A04202D815
:1068B0000024204610BD2046FFF7C5FF0128F8D967
:1068C00004F50054EEE700BF10000020280100206E
:1068D000E3750108F0B50546002687B0EC69013C78
:1068E000B44203D80C46204607B0F0BD01B14C1E9F
:1068F0006F6C2868EB6B05225B6901A907FB04003C
:10690000984701A8FFF79FFF0128ECD921460136DF
:10691000E4E7F0B504680646091B446C0025B1FBAA
:10692000F4F487B0F36930685A1E9542776C06D349
:10693000716C306801FB0400143007B0F0BD013405
:10694000B4FBF3F103FB1144F36B05225B6901A96E
:1069500007FB0400984701A8FFF775FF0128E7D956
:106960000135DFE72DE9F04F144607460D469946FD
:10697000C36B89B001225B6905A960689847FB6B0E
:1069800001225B69284604A99847059B5A1C06D139
:106990000020A360A075607509B0BDE8F08F0122EA
:1069A0004FF0000CA275227E049904EBC202D5615F
:1069B000A2F820C06668C1F3D310AE4201F07F0296
:1069C0000BD14FF0FF3320602275A360237D043B81
:1069D000022B25D80020A075DEE726688642207DA0
:1069E00018BF84F816C090421CBF0020A07503F0A9
:1069F0007F0001288CBF00200120012A8CBF0022CB
:106A0000012290421CBF0022A27511F07E0F03F0FC
:106A10007E0300F0E980002BD8D10023A375D5E7D1
:106A200011F07E0F0FD1FB6B022228465B6906A98D
:106A3000984706A8FFF79FFE237D032B3BD8DFE88E
:106A400003F03535040904A8F4E7CC21227E04EBD9
:106A5000C2021184664AD35C049E129A16F07E0B21
:106A600018BF00261370237E08BFC6F3C16604EB6F
:106A7000C3035FFA86FAB3F8208083F822A0BBF143
:106A8000000F00F08C8000231B2204A906A88DF8BB
:106A90001830FFF792FE9DF81830049AB3EBD26FCE
:106AA0000CBF012300230422637594E0227E04EBD3
:106AB000C2021084CEE7227E062B04EBC2021084B1
:106AC000C8D90123C8E794F816B0BBF1000F00F055
:106AD0008880B8F1000F09D1DEB10123617EE37532
:106AE00000293CD19E4218D1667614E07B6CA81830
:106AF000594285EA000C1CEA010F1CBF0021A17558
:106B0000591E01405B1A984569D8A37D002BE3D13B
:106B100067E0E37DA3B94FF0000B28F003002844A1
:106B2000104418F0030F7B6C18BF04305B4285EAF9
:106B30000002134203D029463846FFF7EAFEA06060
:106B4000A27D12B1236943442361237E012B0DD81A
:106B500001332376B9F1000F0BD1A07D1CE7012E84
:106B6000EED0BAF1030F08BFA376D4E70023A375D4
:106B7000F3E7002AF1D0E37D002BEED0BBF1000F4C
:106B8000EBD1032EE9D0A1684B1CE6D0129B224624
:106B9000009338460123FFF7E5FEA075DDE7FB6BA8
:106BA00002225B6906A928469847202206A90DF112
:106BB0000F008DF80FB0FFF700FE1A2207A9FFF7AC
:106BC000FCFD9DF80F30079AB3EB926F0CBF0123C9
:106BD000002308226375637D002B7FF474AF0023CC
:106BE000A3754FF0000BABE7002B3FF4EFAE14E7BB
:106BF000980D010813B50C46002100932176134629
:106C000061682246FFF7AEFE18B1E37D03B1A07EB6
:106C1000A075A07D02B010BD70B50025044686B0F9
:106C20000562E369AB4202D8206A06B070BD666CAB
:106C30002068E36B05225B6906FB050001A9984704
:106C400001A8FFF700FE012898BF236A05F101059E
:106C50009CBF01332362E4E7F0B5002504462E46CD
:106C600087B0E369B34202D8284607B0F0BD636C31
:106C70002768052203FB0677E36B01A95B693846A9
:106C8000984701A8FFF7DFFD012809D8204607F142
:106C90001401FFF7C3FC636C143B834208BF01354A
:106CA0000136DEE7F0B504460D46466CE36B00683E
:106CB00087B005225B6901A906FB0500984701A87A
:106CC000FFF7C1FD012804D801A8FFF794FD07B024
:106CD000F0BD29462046FFF7FDFD0646676C20689B
:106CE000E36B05225B6901A907FB0600984701A831
:106CF000FFF781FD431CEAD0B54238BF0130E6E71B
:106D0000074B9A6CDB6C110A0270120C82701A0A23
:106D1000C2701A0C1B0E417002714371704700BFA4
:106D20000080E00F104B10B5D3F82831044603F073
:106D30000703013B032B14D8DFE803F0020D100911
:106D400005230A4804B1206001B10B7010BDFFF7A4
:106D50006DFA0723F6E703230548F3E70223054806
:106D6000F0E700231846EDE700800040C0EA21016B
:106D7000C0175302002D3101134B10B5D3F8203149
:106D8000044603F00703013B052B19D8DFE803F0A5
:106D900003061109141605230C4805E003230C48CB
:106DA00002E0FFF743FA072304B1206001B10B7042
:106DB00010BD02230748F7E70623EDE70423EEE7BB
:106DC00000231846F0E700BF00800040C0EA210120
:106DD000C0175302002D31010D4BD3F8403103F0A1
:106DE0000303022B0BD0032B0BD0012B0DD10A2355
:106DF0004FF4004200B1026001B10B7070470923EB
:106E0000F6E70C234FF47A72F4E700231A46F1E711
:106E1000008000404FF480320F4B30B59A66A3F5E6
:106E200080531D6F03F52033DC69C5F3033514402F
:106E300041F6713205FB0000DA63084D5A68A8423A
:106E400022F4401203D9012918BF42F480125A607B
:106E50000CB10022DA6330BD00900040005A62029B
:106E60004FF480321C4B70B51C4D9A66EE6941F6AA
:106E7000713316400122EB63194B0446DA6002239A
:106E80006861002121202B6109F01AFF10B921202F
:106E900009F016FF0122134BDA600EB10023EB63F9
:106EA000431C14D0A8B9104B9B680A3303F01F028F
:106EB0000123934023F0030323449C4201D100208B
:106EC00070BD54F8042B0132F7D00848F8E70848A1
:106ED000F6E70848F4E700BF0090004000000340D8
:106EE00000100340002003400080E00F0EE000F09F
:106EF00021E000F024E000F070B54FF00065AB6ACF
:106F0000ADF50C7D03F17842B2F5C04F05D34FF4D7
:106F1000017420460DF50C7D70BD1B6B002BF6D067
:106F20004FF40B7200205B6A01A9984704460028C1
:106F3000EFD140F20126AB6A03F17842B2F5C04FBF
:106F4000E5D21B6B03F17842B2F5C04FDFD20021CE
:106F50009B6A01A89847B042EDD040F203239842C3
:106F600018BF0446D5E700004FF00062926A0B4656
:106F700002F17841B1F5C04F10B40DD2126B02F19D
:106F80007841B1F5C04F07D214690146A4460020EC
:106F9000044A5DF8044B60474FF481705DF8044B80
:106FA000704700BF8807002037B50446684680E870
:106FB0000600251D03C885E805002373069B0B4AC0
:106FC0002361BDF81C30A38200232360136853B1F2
:106FD00019461B68002BFBD10C609088013080B2F1
:106FE000908003B030BD1460F7E700BF4807002071
:106FF00037B50D461446FFF76DF970B1036973B1EB
:107000004FF6FE72818A914209D1694601200095AE
:10701000ADF80440984703B030BD0120FBE70E20D7
:10702000F9E7036937B514460D46828A63B14FF616
:10703000FE718A4208D1002069460090ADF8040034
:10704000984728B103B030BD2B6000202280F9E7BB
:10705000009B2B60BDF804302380F3E738B50D4664
:107060001446FFF737F940B122462946FFF7D9FF0A
:1070700010B92B6803B9208038BD0120FCE700005F
:1070800007B50379054A0193036806CA00930830DF
:107090000223FFF789FF03B05DF804FBB40E01087B
:1070A0002DE9F0410546984688B0036908460E462A
:1070B00017469847002869D1D8F804305B0A012B9D
:1070C00002464FEA530300F10100F8D898F8034054
:1070D00098F802302403DB0203F4006304F48054C4
:1070E0001C43B8F800304FF00008C3F30A032344F0
:1070F000540304F460441C44294B6FEA0444039392
:1071000027F07843FF430DF107001B2202A90293E9
:107110008DF80780FFF751FB9DF80720029B02A91D
:1071200043EAC26327F078471B22049302978DF845
:107130000780FFF742FB9DF80720029B6FEA14448B
:1071400043EAC26305934FF0FF330122069307948D
:10715000AB6907A906F11000984701220446AB6904
:1071600005A906F1080098470122404518BF0446CA
:10717000AB6904A9301D98470122404518BF044659
:10718000AB69304603A9984700B934B13146284667
:1071900008B0BDE8F041FFF7FDBA08B0BDE8F081E6
:1071A00001009AB2034B5A6D12B95865A3F85810F2
:1071B000704700BFE806002070B50C4690B9FFF795
:1071C00039F958B1436B084D03F140062A46186857
:1071D0005968083303C2B3421546F7D1034B236005
:1071E0000423A380002070BDAC010020CC0100204E
:1071F0002DE9F04116460546FFF7EAF9B04228BFEF
:10720000304686B20F46B046B8F1000F09D12EB114
:10721000AB7DDA0744BF23F00103AB753046BDE810
:10722000F0812B68AC8A69681C44641AA4B2444596
:1072300028BF44463846224609F064FC6A682B6839
:10724000A98A224419448A4238BF13462744A8EB2E
:1072500004041FFA84F86B60D6E7F8B51F46038A6A
:1072600004461646EBB9C57DDDB10123013D0B7027
:107270000222C57500F11001FFF7BAFFE37D9BB153
:10728000228A3146BA4228BF3A462046FFF7B0FF6D
:10729000238A1B1A2382E37D13B9638A1B1A638234
:1072A000F8BD00230B70EBE7638A2382E8E72DE942
:1072B000F04104460F461146FFF78AF9A38A181ACF
:1072C00086B28E4228BF0E46B046B8F1000F0BD1F1
:1072D0003EB1D4E901329A4202BFA37D43F00103DB
:1072E000A3753046BDE8F0812368A58AA0681D44D7
:1072F0002D1AADB2454528BF454639462A4609F004
:1073000001FCA2682368A18A2A4419448A4238BF32
:1073100013462F44A8EB05051FFA85F8A360D4E7B0
:10732000F8B5044616461F4611B3FFF751F9A58A72
:10733000281A80B2012829D9E37D63B1E068658A03
:1073400005702D0A07D02268A38A013013449842A1
:1073500028BF1046F4E700236382A3680222E3609B
:10736000204604F11201FFF7A2FFE37D0133E3752C
:107370003A4631462046FFF79AFF638A0344638208
:10738000E37D13B9238A03442382F8BD0020FCE780
:1073900010B5044644EA010313F00303084609D17B
:1073A000934201D1002010BD54F8231040F823105F
:1073B0000133F5E72146920009F0A4FBF2E7000053
:1073C00013B504460379124A0333019300F14403D1
:1073D000009306CA02231430FFF7E6FD94E8060086
:1073E000238A04F12C000193E3680093237AFFF7CA
:1073F000DBFD237A22792168A4F8450004F14700D7
:1074000084F8443002B0BDE8104009F07BBB00BFF7
:10741000AC0E010870B50C4B0C4C06460D46D4E979
:10742000010183E803001846FFF72AFED4E90401AE
:107430000222074B1A7283E80300DE601D821846A1
:10744000BDE87040FFF7BCBFA4130020740D010815
:107450003005002038B5202204460D460C300021AE
:1074600009F05DFB4FF0FF33C4E90035A36038BD80
:107470002DE9F04F0F462DED028B002589B0044613
:107480004FF0FF311046C7F3130B904699468DF825
:107490000B50FFF7DFFF5F456AD12B46E1688B4257
:1074A0000DD0A26802EBC30052F83320561C0FD057
:1074B000C2F3130293450BD141684D1C0AD1237CC2
:1074C000002B57D1464809B0BDEC028BBDE8F08FC8
:1074D0000133E4E74046FFF7BDFF01224146204665
:1074E0000DF10B03FFF786FB0028E8D09DF80B3069
:1074F00089F800300020E6E72068361A606CB6FB99
:10750000F0F63FE05046FFF7A5FF18EE102A51466F
:1075100020460DF10B03FFF76DFB8446B8B1B91C93
:1075200003D0DAF80030BB4211D145469DF80B304C
:10753000DFF8B0E089F80030BEE80F000FC5BEE804
:107540000F000FC59EE8070085E807006546DAF8DA
:10755000081032E0002DB5D05F45CBD1394699F8FF
:107560000030D8F8042004F10800FFF78FF8C1E7D5
:10757000BB1CA4D1E66A701CBED12046616AFFF72D
:10758000A9F90646BB1C18BF012308EE103ADFF824
:1075900054A0636A25680193636C03A903FB065535
:1075A000E36B05225B692846984703A8FFF74BF970
:1075B00005F114031946002500934A1C05D0636C9D
:1075C000009A5B424A4013429CD031462046FFF766
:1075D00081F9019BB342BDD0002DBDD10646D8E74D
:1075E0000BE000F0000F00202DE9F04F4FF0FF33CB
:1075F00000258B464FF6FF71044600F10806C0E9EE
:10760000091387B0C362056205633046FFF72CF8A3
:107610002046FFF701FB00285BD14FF6FF79D4F835
:1076200024800027C84514BF45460025E3699F42D2
:1076300052D32046FFF7F0FA002833D1B34D20464D
:10764000FFF70AFB06E12368E26B606C576900FBF9
:107650000530052201A9B84701A8FFF7F4F8012871
:10766000074603D0C31EDBB2012B12D829462046A1
:10767000FFF718FB0246012F2168676CE06B434659
:1076800007FB051108BF0132FFF70AFD2046FFF78F
:10769000C3FA0135E3699D42D5D32046FFF7BCFA12
:1076A0000028BAD000254FF0FF384FF6FF73C146CF
:1076B0002F46C4E90853E3699F423FD3A5EB080571
:1076C000012D5ED84FF6FF72636A93426ED1904DE2
:1076D000B5E704F14008DDE7636CE26B2068D2F89F
:1076E00014C003FB0500052201A9E04701A8FFF72C
:1076F000AAF802280FD0C84515D10BF10102606C21
:10770000216804F1400300FB0511E06BFFF7C8FCA2
:107710002046FFF781FAE3690135B5FBF3F2013743
:1077200003FB125582E729462046FFF7BBFAB0F16A
:10773000FF3F14BF02465A460132E0E7636CE26B3A
:107740002068D2F814C003FB0700052201A9E04716
:1077500001A8FFF778F8824601A8FFF74CF8BAF1C4
:10776000010F0CD8484538BF6762804528BF804666
:10777000854238BF05468146236A013323620137BB
:1077800099E74FF6FF7300256362E3699D4299D242
:10779000676C2068E36B052207FB05005B6901A9A4
:1077A000984701A8FFF727F80135EEE7E26B676C11
:1077B0002068556907FB0300052201A9A84701A815
:1077C000FFF719F8626A616C2368524D01FB0233BE
:1077D0001433A3624FF0FF332A46E3626FF00101D6
:1077E00020460DF10303FFF743FE002836D1AD68B4
:1077F00029462046E562FEF711FF206320B92046A6
:10780000E16AFFF786F8E06229462046FFF781F833
:107810000546A36A9D4223D16369656C2046A5F1A4
:107820001402DD1CB5FBF2F503EBC5050335B5FB12
:10783000F2F5FFF711FA0235A84280463ED2204603
:10784000616AFFF747F80027064604F1400AAF4295
:1078500018D3314D284607B0BDE8F08FA56AC7E7B9
:1078600029462046FEF7DAFE236B294603440746E5
:1078700023632046FFF74DF80546002FC9D1C4E920
:107880000B07C6E7474512D3626C236801A902FBC8
:107890000639E36B05225B694846984701A8FEF765
:1078A000AAFF534602464946E06BFFF7F9FB314613
:1078B0002046FFF70FF801370646C8E73046FEF7C7
:1078C000D3FE164DA16AE36A994201D04B1C01D147
:1078D0000025B4E62846FFF7BDFD012229462046D3
:1078E0000DF10303FFF786F930B1D5E900123046F8
:1078F0009DF80330FEF7CAFEA9684A1CE3D1696807
:107900002046FFF706F80146DDE700BF03E000F080
:1079100016E000F0D40E002013E000F02C0F002041
:107920002DE9F74F89464FF480314FEA820A324AF7
:10793000324D9166EA69804602EA010341F67132EE
:1079400001210093EA632E4A8346D16057464A4696
:107950000FB938462EE00BF5005424F4FF5424F000
:107960001F04C5F814B0A4EB0B04E969BC4228BF9E
:107970003C46490739D4164656F8041B2244A961EF
:1079800096420ED10422002121202A6109F098F9A3
:1079900080B9212009F094F960B93246A3443F1B15
:1079A000D6E708210846019209F08AF9019AC0B188
:1079B00004232B610122134BDA60009B13B10022D8
:1079C0000E4BDA63431C13D0A0B9524649464046D9
:1079D00009F0B6F800280C4808BF002003B0BDE845
:1079E000F08F56F8041BA961CAE74FF0FF30E1E7BA
:1079F0000648F3E70648F1E7009000400000034026
:107A0000001003400020034010E000F021E000F0EF
:107A100024E000F02DE9D34FDDF8289004460F460E
:107A200090461E46BDF82CA0FEF754FC8346BBF1E1
:107A3000000F01D0BC4205D94FF6FF74204602B0BA
:107A4000BDE8D08F9BF808309E421CD1324641469B
:107A5000DBF8040009F074F8A8B9B9F1000FEDD013
:107A600058460DF1020201A9FFF7DBFA58B9019956
:107A700049B1BDF80230534505D15246484609F098
:107A80005FF80028DAD00134DBF800B0A4B2CEE70A
:107A900038B50C46114625680144AD1A2A4609F04E
:107AA0005FF8256038BD00002DE9F84F07EE901A09
:107AB0004E4B4F49DFF858915B1A4E49D9F8006098
:107AC0000B4423F4FF53A0EB0608DFF848A123F092
:107AD0001F03984505461446CAF80080C0F082800E
:107AE0008718FEF7D5FE28B9FEF77AFC00F1FF6093
:107AF00000F5FC20874272D8D9F800000719B7F5C5
:107B0000806F03D982223C4B1A7066E0DFF8FCB02C
:107B1000224617EE901A584408F0F4FF374BC9F884
:107B200000701A6822B9332F57D9DBF834201A6055
:107B3000186808EB070480451ED884421CD900F160
:107B400010039C4249D30644751B5D442B462C4AC6
:107B500005F1100153F8040B8B4242F8040BF9D1E4
:107B60002748FEF745FC10B98422234BCCE71022AE
:107B7000FF21284608F0D3FF224D234B07F00307CF
:107B80002868E41B1C4058B908EA0300C0F50051FE
:107B90002144FEF711FC2C6040B18522164BB3E75F
:107BA000A04203D2211A00F50050F2E7D9F80020D4
:107BB0001649D21BDAF80000FEF7E6FB0446D9F8B6
:107BC0000020DAF80030D21B134411490F48CAF8DC
:107BD0000030FFF75DFF002CDFD1BDE8F88F832276
:107BE000054B91E78722044B8EE700BF2801002058
:107BF00010000020E37501088D0B00201C0E0020F2
:107C00000C0E00205C13002000E0FFFF580F002046
:107C100058130020900B0020002337B5114C00931F
:107C2000437A6060D0E90021206802F0BCFF238C19
:107C3000DB050CD563680C4D1B7A2A789A4206D076
:107C4000012B06D0022B08D063681B7A2B7003B07F
:107C500030BD206802F07CFFF6E7206802F07EFF6E
:107C6000F2E700BF601300204507002013B50D4B5D
:107C700001281B8B0C4CADF80430ADF8003002BF6E
:107C800002238DF80430042301A9206808BF8DF871
:107C9000003002F08DFE6946206802F09FFE02B0BF
:107CA00010BD00BF740D0108601300200022034BBB
:107CB00003211A611868012202F098BB60130020AA
:107CC0001FB502238DF80630064B5A8B59690332D3
:107CD000ADF8042018686A4602F0F8FE009805B076
:107CE0005DF804FB6013002010B51E4C1946236993
:107CF00086B023B3A2F10800084322D1032101AAD0
:107D0000206802F0DFFE636860615B7A0220237600
:107D10009DF8043004F11801DA1F53425341627E8A
:107D200063F30002039B6276E361BDF80630638370
:107D30002369984701220021206802F0C9FE06B09D
:107D400010BD02F17F40014305D10021012006B0A2
:107D5000BDE81040184712F4A0411ABF00210320CB
:107D6000FF20F4E760130020F0B5194C194D87B0DF
:107D7000637A20460133DBB2272B88BF2523637249
:107D8000FFF74AFF627D4FF40073134902322868FF
:107D9000E768667C02F077FE6B68104A5B7A06F053
:107DA0000106D15C30460391FFF760FF01230022FA
:107DB000059303992868009204AB049702F01AFB1C
:107DC00010B1FFF773FFD3E7054B2B6107B0F0BD90
:107DD000440100206013002058010020810E01089A
:107DE000058F0008EFF3108072B67047044B054A08
:107DF0009A60D3F8882042F47002C3F88820704754
:107E000000ED00E00060000800487047C0EA210172
:107E1000084B1B6F03F00703022B04D0032B04D085
:107E2000012B04D0FEE7044870470448704704481B
:107E3000704700BF00800040C0EA2101C017530214
:107E4000002D310108B5FFF7E3FF044B1B6FC3F3AF
:107E500003330133B0FBF3F008BD00BF00800040E6
:107E600000487047C017530208B5FEF721FA704763
:107E7000FEE70000430905D0012B0DD0022B094B72
:107E800018BF002300F01F0041B103F58053012209
:107E900002FA00F018607047034BF3E703F5005354
:107EA000F5E700BF68800040648000401FB50023F4
:107EB0008028029300F0DB8048D8002800F0DB80A7
:107EC000203883B23D2B57D83D2855D8DFE810F035
:107ED000D300E100D300E100FD00FD00FD00FD0046
:107EE000FD00E1000F016000310198006000E10039
:107EF000E100E100540054005400540054005400C8
:107F000054005400E100E100E100AD004501E10052
:107F100054005400540054005400540054005400C1
:107F200054005400540054005400FD00D300D3000A
:107F3000D3003601600060005101BC0072000A01EC
:107F400054005400540054005400C900B0F5B06F00
:107F500000F0CD8043D8B0F5207F00F09A800FD894
:107F6000B0F5C07F00F08780B0F5007F00F086801C
:107F7000B0F5807F00F0CD80029805B05DF804FB7D
:107F8000B0F5607F00F08C800DD8B0F5407FF3D164
:107F9000FFF758FF844B1B6FC3F380230133B0FB03
:107FA000F3F0400865E0B0F5806F00F08E80B0F52A
:107FB000A06FE1D100217C4B0391D3F8203203F074
:107FC0000703042B08D8022B00F28880012B00F055
:107FD0008180022B00F0E280039B0293CCE7B0F596
:107FE000106F00F0AB8024D8B0F5E06F00F0B580E2
:107FF00018D8B0F5C06F00F09C80B0F5D06FBBD141
:10800000694BD3F8000200F00703032B00F0A080B7
:1080100010F0040040F09680013B012B98BF4FF414
:10802000004026E0B0F5F06FA6D15F4BD3F8603189
:1080300096E0B0F5406F55D010D8B0F5206F00F045
:108040009880B0F5286F97D10021574B0391D3F852
:10805000703203F00303012BBED166E0B0F5486F28
:108060008AD100230393504BD3F8943286E0FFF774
:10807000CFFE029080E7FFF7E5FEFAE7FFF7C8FEC4
:10808000494BD3F89030C3F304630133B0FBF3F0F2
:10809000EFE7FFF7D7FE444B1B6FC3F38023F4E7F2
:1080A0004149D1F8802002F00302012A07D0022AB8
:1080B00008D01846D1F88030C3F30113E5E7FFF785
:1080C000A7FEF7E7FEF7B2F8F4E7002102A8FEF7F3
:1080D00053FE51E703A8FEF725FE7DE74FF400436A
:1080E000039379E7002102A8FEF71CFE44E7002174
:1080F0002D4B0391D3F8803103F00303022B47D0BB
:10810000032B4BD0012B7FF467AF03A8FEF734FE9F
:1081100062E703934FF0E0231B695B0703D5FFF78A
:1081200091FE039058E70DF1070103A8FEF754FEF6
:1081300052E7002102A8FEF74FFE1DE71A4BD3F8C5
:10814000080260E7042B06D1FFF77CFE800A90E767
:108150004FF47A708DE700208BE7134BD3F8403251
:1081600003F00303032B1CD0002B18BF4FF4004374
:1081700033E7002303930C4BD3F8603203F007037B
:10818000013B032B3FF628AFDFE803F004060208AB
:10819000064BA5E70021B8E70021C6E7FEF746F841
:1081A000BFE74FF47A7318E700800040002D3101DB
:1081B00000B962B6704700002DE9F04106460D4651
:1081C00014460C4F0CB9BDE8F081EFF3108872B67D
:1081D00023462A4631463846FFF7A2F80346404672
:1081E000FFF7E6FF002BEDD0E41A0026A4B21D44F1
:1081F000E8E700BFC80C0020002313B501F1080414
:1082000021461A46ADF80430ADF8060051F8080CC6
:10821000083170B90BB1ADF80420042201200DEB38
:1082200002010834FFF7C8FF54F8101C39B902B036
:1082300010BD51F80C3C1A4492B20123E6E700202D
:1082400034F80C2CEDE700007FB500230130CDE9B8
:10825000043380B2054BCDE9010169460420009347
:108260000392FFF7C9FF07B05DF804FBF20100209D
:1082700038B501464FF04023D3F88420D206FBD412
:10828000D3F88430C3F38113994228D0FFF7C0FD9F
:108290000129044601D1FEF7BDFDEFF3108072B64F
:1082A0004FF000750E4A4FF0402355664FF4806240
:1082B0004D1EAA401A675A6E950103D4D3F8842044
:1082C000920609D5FFF774FF022908D12046BDE8C0
:1082D00038400021FEF79EBDD3F88420EBE738BD7F
:1082E0000060004008B5C36800209847024B18683A
:1082F000BDE80840FFF75CBFE40D00202DE9F04F1A
:10830000DFF8ECA287B09AF8003006468946009262
:1083100003F0FF08002B35D1FEF7BAFA0746FEF747
:108320005FF887B1A94BAA4CD3F800B000F1FF6504
:10833000C3F8008094F8343005F5FC25ED1B53B3E9
:1083400023689F4206D000264046009B1E7007B05F
:10835000BDE8F08F63689D42F5D1A2689D4B9A42BB
:10836000F1D1E368062BEED140F26C7362699A4258
:10837000E9D1E26B984B9A42E5D1C4F81880012309
:108380008AF80030924F97F83430002B40F0838009
:108390000026B046D8E7A36B4022414604F1100006
:1083A000019308F0BCFB019B04F10800A36340F2B9
:1083B0006C736361874BC4E90075A3600623E360B7
:1083C000FEF752F9844B04F14000E36301F034FFFF
:1083D00000285ED1636C13B16268B2FBF3F394F8CA
:1083E0004320E361002AAED0656C002DABD0002B9A
:1083F000A9D02368B3FBF5F205FB1233002BA2D101
:108400006768B7FBF5F305FB1373002B9BD170482E
:10841000FEF7EBF8874296D340F634726369CC3BA3
:10842000934290D8B5F5007F8DD303216848FEF7BD
:108430000FF9D4E90001E36B1B6898470546E36B2D
:108440000220DB689847C5B959466148FFF7CCF868
:10845000624B0546984204D159465D48FFF7C4F87F
:10846000054655B9636C276A143B59485F43FEF7CC
:10847000BCF85B4B874238BF1D46B5FA85F3E06B0D
:108480005B0984F83430FFF72DFF002D3FF477AF00
:1084900059E74346A3E7DFF84CA10121384646F4EB
:1084A0008025FEF7D5F852462946384604ABFEF73C
:1084B000DFFF044600283AD19DF81030032B36D058
:1084C000022B37D0DAF81060F86BFFF70BFF002CA7
:1084D0007FF45EAF009B1B78B342FFF459AF97F86F
:1084E0003480B8F1000F3FF453AF01213848FEF754
:1084F000AFF829463B4A36480DF10B03FEF7B8FFAB
:10850000054660B99DF80B30012B73D1DAF81030B5
:10851000B34275D13546DAF804A0FB6B65B9F86B48
:10852000FFF7E0FE002D7FF433AFF6B20CE7002634
:108530002D4CC9E70426C7E701225B6903A9504611
:1085400098472849039B0968C3F3D31291423BD152
:1085500013F07E0F2CD003A8FEF70DF94FF0040B9B
:10856000A84228BF284603280446D344A5EB0005AB
:108570000BD9FB6B49465B6982085846984724F043
:1085800003039B4404F0030499445CB1FB6B012298
:108590005B6904A9584698474846224604A908F052
:1085A000B1FAA14451460A48FEF7B3F98246B4E74E
:1085B000FB6B02225B69504604A9984704A8FEF7AA
:1085C000DAF84FF0080BCBE7084DA8E724040020A9
:1085D000580E0020200E0020640E010813E000F069
:1085E00002E000F0A80E00200BE000F022E000F016
:1085F000500E0020034D0448022B18BF05468EE79D
:10860000024D8CE70CE000F00BE000F011E000F010
:108610004FF00062936A10B503F17843B3F5C04F91
:108620000ED2EFF3108072B60024064B19781C703E
:10863000FFF7BEFD21B1BDE81040936A1B6A1847E1
:1086400010BD00BFE80D002001282DE9F34740F0E0
:1086500041818B88012B40F03F810B681C7814BB53
:108660009F4BA04D1C60A04B1C60A04B1C60A04BFE
:108670001C60A04B1C60A04B1C70A04B1C60A04B4E
:108680001C602B78022B01D1FFF7C2FF01232B7056
:1086900000239C4A13709C4A13709C4A1370204616
:1086A00002B0BDE8F087032C40F00281974B8D4E5D
:1086B0001C78002C40F085803378002B00F0EC8093
:1086C0008D4B1B78082B7FD1DFF81482D8F800007F
:1086D00080B94FF00065AB6A03F17843B3F5C04F42
:1086E00055D34FF4017041F20804A0420CBF862418
:1086F000802466E010F003070EBF2746C7F1040789
:10870000FFB200EB070ABAF5806F00F2CB80804B16
:108710003A46FF211844DFF8E49108F000FA7D4A58
:10872000D9F8003012680AEB03019142C8F800A0A2
:1087300000F2BC806C4A15681D445544DFF8B4A1B2
:1087400025F4FF55DAF8000025F01F05854207D90A
:10875000291A00F50050FDF72FFEB0B9CAF80050F5
:10876000D8F80010D9F80000FEF7FEFB0546D9F84E
:108770000030D8F800205A491344DB1B6448C9F87C
:108780000030FFF785F9002DA3D0852419E0FEF70E
:10879000B3FB0028A7D1AB6A019003F17842B2F590
:1087A000C04FF2D21B6B03F17842B2F5C04FECD24E
:1087B00001219B6901A898470028E6D10122524B6C
:1087C0001A70002333706AE7002B67D04D4B1B787B
:1087D000002B65D04A4F3B6843B9454B10224E49A8
:1087E0001868FDF7D1FD0028EBD0CEE713F00302A7
:1087F0001CBFC2F10402D2B203EB0209B9F5806FCB
:1088000050D84648FF21184408F089F9444A454B9E
:10881000DFF8D8809B1A444AD8F80050134423F458
:10882000FF5323F01F03AB42C7F800903CD8A94484
:10883000FEF72EF828B9FDF7D3FD00F1FF6000F533
:10884000FC20814532D83B68DFF8A8901D44D9F858
:10885000000025F4FF5525F01F05854208D9291A87
:1088600000F50050FDF7A8FD00288ED1C9F8005092
:108870003A682A49D8F80000FDF786FD0546D8F881
:1088800000303A681E4913442448C8F80030FFF706
:10889000FFF8002DA1D078E7812492E7842490E7A7
:1088A00080248EE782248CE787248AE7832488E764
:1088B000042C13D1132302211C4843700170FEF7CE
:1088C00071FC1B4A1B4B128905329A801A4A1A60A6
:1088D00042789A710024E2E60D24E0E60624DEE602
:1088E000880B00208E0B002004140020900B002029
:1088F0001C0E00205C130020EC010020940B0020D3
:10890000581300208C0B0020F90100208D0B002053
:1089100088070020081400200C0E0020580F0020AB
:108920001000002028010020E3750108000E00203F
:10893000E8060020EC0D0020099400084FF00062CA
:10894000936A10B503F17843B3F5C04F0ED2EFF33D
:10895000108072B60124064B19781C70FFF728FCB2
:1089600021B9BDE81040936ADB69184710BD00BF0C
:10897000E80D00202DE9F04F012891B004D000242B
:10898000204611B0BDE8F08F8A88002A00F0CF8120
:10899000A64F97F800A0BAF1000F00F0CA81A44DCD
:1089A0002C78002CECD1DFF8B8B29BF80040002CFA
:1089B000E5D1A04E306802EB0009B9F5806F02D90D
:1089C00082242C70DCE7DFF884820968404408F0D8
:1089D00099F8BAF1020FC6F8009038D0B9F1030F38
:1089E000CDD99548FDF79EFC0378D8F80020012BDF
:1089F00043D14368190E012903D1C3F307430A2B5E
:108A000043D98E4B9A4240F0DB808368DA033AD533
:108A100002233B70FFF792FF4FF000639B6A03F164
:108A20007842B2F5C04F09D21B6B03F17842B2F520
:108A3000C04F03D200209B6809A99847804B099A30
:108A40001A60804B0A9A1A603B78022B97D1DFF8A4
:108A50001492336899F80020082A4CD1DFF8F48189
:108A60007849D8F80000096803F0030AC218A2EB9D
:108A70000A028A420BD98324A3E7704CA2420CBF9E
:108A8000862484249DE786249BE7882499E76C4A02
:108A900017681F4407446C4BA7EB0A07186827F4B4
:108AA000FF5727F01F07874209D9391A00F50050F0
:108AB000FDF782FC644B08B1852482E71F603168B2
:108AC000D8F80000A1EB0A01FEF74EFA074632681B
:108AD000D8F80030A2EB0A02134456495B48C8F8A4
:108AE0000030FEF7D5FF002FE6D199F80030002BBB
:108AF0007FF445AF01E0002A64D133687F2B7FF615
:108B00003EAFDFF85481D8F8000008BB4FF0006397
:108B10009B6A03F17843B3F5C04F13D20123CDE92B
:108B20000A0009A88DF82430FDF7FCFB0A9B1A0EF9
:108B300078D0012A70D1C3F307430A2B6CD871D1C6
:108B40004FF40370424B186007F0F2FFC8F80000C2
:108B50004FF00067BB6A03F17842B2F5C04FABD269
:108B60003B4A9B6A1168D8F8000098470028A3D1B7
:108B7000BB6A03F17843B3F5C04F21D201233268B9
:108B8000CDE9070006A88DF81830D8F800A00392A8
:108B9000FDF7C8FB079B190E12D00129039A03D1D8
:108BA000C3F307430A2B0BD94FF0006305A99B6A57
:108BB00000915F6B5046254909ABB847002853D058
:108BC0008424FEE623490A681A440A604FF00062D2
:108BD000926A02F17841B1F5C04F13D21E48D76AAC
:108BE0001E491A4A0068B8470746326811491748B3
:108BF000FEF74EFF40F203239F4206D101238BF87C
:108C00000030BDE640F20227EFE740F201239F4229
:108C10003FF46BAF8024D4E64FF000639B6A9B6BFC
:108C200098478FE74FF4C0708CE700BF8E0B002091
:108C30008D0B0020880B002010020020EB17A603EC
:108C400004140020081400205C1300208807002072
:108C5000AC0B0020940B0020A80B0020980B0020E8
:108C60008C0B0020EC0100209DF8243089F80030A6
:108C70000393FDF7DFFB039B074648B3D0F834A00E
:108C8000002B3FF47DAE00230693042335200DF125
:108C9000130206A98DF81330FFF730FB069BDB07A4
:108CA0001AD599F80030082B14D0BAF1000F42D031
:108CB000534610220CA903F12800039307F040FF4C
:108CC00020B9039B0A9A1B6A9A4205D8892478E640
:108CD0008246D5E7344BECE797B14FF40051384664
:108CE000FDF76AFB00287FF4E7AE2AF4FF504FF44B
:108CF000005120F01F00FDF75FFB00287FF4DCAE81
:108D000099F80030082B18D1284B294A18684FF4DD
:108D1000005120F4FF5323F01F031360FDF74CFBB9
:108D200000283FF42DAEC7E640F202272BE00D24C9
:108D300026E6812424E6002FCFD14FF000691D4B99
:108D40001D4F7B60D9F8283003F17842B2F5C04F4F
:108D5000BFF4B2AE194A9B6A1168D8F80000984770
:108D600000287FF4A9AED9F8283003F17842B2F593
:108D7000C04FD9D23946D3F82C90114A3368D8F86D
:108D80000000C847074632680E490D48FEF780FECE
:108D900040F203239F423FF431AF40F201239F4250
:108DA0003FF4EEAD36E700BF240E010804140020A6
:108DB0005C130020A97A0008980B0020AC0B00205F
:108DC00088070020880B002008B5074B4FF000549F
:108DD0001B782BB1FFF7B2FD044B2360FDF768FA57
:108DE0002360FDF765FA00BFF901002002020FF0D1
:108DF00010B5164CA37E5B0626D4FEF757FF40F253
:108E0000E243A18C226803FB0122A37A226094F83A
:108E10004F2013442522B3FBF2F002FB10332289CA
:108E2000A372013222810A22636802FB013363606C
:108E3000238B5A1E22833BB9A27E42F04002A276C7
:108E4000034A1370FFF7C0FF10BD00BFE806002003
:108E500044070020F0B5254C87B0A37E5A0640D4C5
:108E6000234A23F0070343F00103A3761368218903
:108E70001BB192888A4200D19847A37A1D482344A7
:108E800093F82A306375FEF7C7FED4E900561A4CF2
:108E90001A4A636801205B7A7708D15CA5EB560615
:108EA0000191FEF7E3FE4FF48073029600266435CD
:108EB00001993D44ADF8143002AA33462068049568
:108EC0008DF80C608DF8166001F0BAFA05460122A3
:108ED0003146206801F0FCFD2DB1FFF789FFFFF757
:108EE000B9FF07B0F0BD064B2361FAE7E8060020A2
:108EF000EC0D0020F406002060130020810E010814
:108F00006D90000802282DE9F0411DD002D80128FB
:108F100007D0FEE7032800F09E80FF2800F09B802A
:108F2000F7E74E4C637C990707D5FEF7BFFEFEF7C7
:108F30001BFF637C6FF341036374637CDA0768D4BF
:108F4000BDE8F041FEF710BF4B78DB0740F18380AE
:108F50004C68227802F00F08B8F1030F5BD0B8F12B
:108F6000050F78D13E498B7B03F00103B3EBD21F91
:108F70004FD10622083104F1080007F0E1FD064652
:108F8000002846D1FEF792FEFEF79AFE354D314697
:108F900007465C22284607F0C2FDAB7EA5F8188084
:108FA00043F02003AB76627E237E012643EA022350
:108FB000AB84627F237F04F11E0043EA0223EB842B
:108FC00094F82330C3F3040385F84F3094F823302A
:108FD000C3F3421385F850301B232B85FDF772FA3B
:108FE000D4F80E30E27CEB60A37C2F6043EA0223CE
:108FF000227D2E7543EA02432B6195F84F30607D48
:10900000AB72E18A3144FDF799FAFFF723FF164B63
:109010001E70BDE8F081124DAB7B03F00103B3EB92
:10902000D21FF6D1062205F1080104F1080007F06D
:1090300087FD0028EDD1094C4FF4007394F83D20D2
:109040002868023204F13C0101F01DFD637C43F00D
:1090500002036374DDE7FEF729FE71E74401002097
:1090600060130020E80600204407002002282DE9B4
:10907000F34780460C460BD003D8012800F0AE81A0
:10908000FEE7032800F0B081FF2800F0AD81F7E78C
:109090004B78AB4D13F0010300F0BC804A68AF7E03
:1090A000117892F80090C1F3001161F38207AF7656
:1090B000C9F3C001C7F30017B94240F0A88009F016
:1090C0000301022900F0A180032918D0012940F0F2
:1090D0009E804FF0000A567896B19A48818AFDF733
:1090E00077FA0B1A9BB2BAF1000F04D0022B92BF91
:1090F0000023023B9BB29E428CBF002301231E46ED
:10910000A97EC9F38009C1F3C002914508D082F05D
:109110000102D20042F0200221F028010A43AA767F
:109120002BB1AB7E87F0010767F30413AB76AB7E00
:10913000854F13F0200F11D0696D6FF34513AB7697
:10914000002969D03B7895F8582043F003033B7021
:109150007A70B81C07F0D6FC00236B657B48FDF7DE
:1091600037FA003818BF0120AB7E774960F341031E
:10917000C3F3C002AB76C3F300139B0043EAC20300
:1091800043EA00103B787A7823F01C0318433870C8
:109190006F4F02324FF400733868D2B201F073FCA3
:1091A000AB7E6468D90709D56FF30003AB76002363
:1091B0006B60FEF785FD2860FDF7D4F9002E00F006
:1091C000A180237803F00303022B05D0032B3DD0AD
:1091D000012B40F0978000265A486578818AFDF778
:1091E000F7F9081A80B226B1022892BF002002388F
:1091F00080B28542ABB200F2858031465148A21C54
:1092000002B0BDE8F047FEF78BB89A4663E7002648
:10921000334675E71E468AE795F828304B48BA1C56
:109220000DF10701FEF719F810F0FF000BD09DF8C3
:109230000730002B08BF4FF001083B78787068F3C7
:1092400001033B708AE74FF00108F6E7A3780C2B87
:109250000AD80C2B0AD8DFE803F03F2B580909097C
:109260000909600909091800142B7FD0394A1278BE
:109270002AB1162B00F09680182B00F0A28007224E
:1092800035480221027043700DE00C2332484FF044
:10929000FF320370012382704370022203710023A6
:1092A0000621C270437102B0BDE8F047FDF77ABFF6
:1092B000617A237A294A43EA012393801346284995
:1092C00043F8061BD4F80310C2F80610B4F80720C0
:1092D0009A80627A9A7115E0627B237B1F4943EA88
:1092E00002238B800B461F4A43F8062BD4F8032039
:1092F000C1F80620D4F807205A60B4F80B201A8170
:10930000627B9A7202B0BDE8F0872A89134B05325E
:109310009A80154A1A60E278DCE7D4F803303A8C78
:109320000D48134003F0FF0322F0FF02134309210D
:109330000246C0F80130002302F8011B5360B2E777
:10934000E8060020B00B00200C140020C80C002000
:1093500060130020E00D0020000E0020EC0D002026
:1093600029650008A165000809940008B4F80530D3
:10937000B4F80320DB08934228BF13462B8515233E
:109380001D4800216FF004046FF0270203700723CB
:109390008170817144700921C27003714471C2717E
:1093A000037280E72279E3781348134003F0030344
:1093B000022B18BF01231722032102704370837010
:1093C00071E76279A1790D4B42EA01229A800C4A39
:1093D0001A60D4F80320C3F8062093E7094B9B7E5C
:1093E0009A078FD45B078DD4FFF702FD02B0BDE86A
:1093F000F047FFF72FBD00BF000E0020EC0D00204E
:10940000AD640008E8060020054A08B5937E43F0E5
:10941000400393760022034B1A70FFF7D5FC00BF80
:10942000E806002044070020EFF3108072B6704772
:10943000FEF7BEBE4FF00042104B10B55C6E03F558
:1094400080535A664AF6CD3203F50B23596C1A64E1
:1094500001F001015A6B1206FCD41A6A22F4F85288
:1094600042EA0020186209B1054A1A64002CA2BF22
:109470004FF00042034B5A6610BD00BF0080004011
:109480003254FFFF00A000402DE9F04105464AB1EB
:1094900001203026274C884006FB05446BB304F5B9
:1094A000825420603024072905FB04F4224F27D87A
:1094B00004344FEA8108EFF3108072B64FF00F0CBE
:1094C00054F807E002FA08F686EA0E060CFA08FCE1
:1094D00006EA0C0686EA0E06E651FEF769FE52B968
:1094E0000122302002FA01F1124A00FB0522F3B1F9
:1094F00002F582521160BDE8F08104F50154D0E715
:10950000A1F1080C0C344FEA8C0CEFF3108072B60A
:109510004FF00F0E54F8078002FA0CF686EA0806A0
:109520000EFA0CFC06EA0C0686EA0806D4E702F5F9
:109530000152DFE700C0034030C003404FF48032E7
:10954000064B5A6603F5E6239B69C3F385128270C6
:1095500003F03F021B0B4270037070470090004005
:109560004FF040232DE98048D3F89430A5B013F094
:10957000400F1CAF1BD14FF00053002238461A6039
:10958000FCF7D0FEFCF756FFC0B1446BFFF7D6F9ED
:109590001E9B5B0740F1C281FCF74CFFFCF7E8FE25
:1095A0000446FFF735F8002C40F0D68106E04FF076
:1095B00000531A68022ADED100221A60BFF34F8FCF
:1095C000BFF36F8FB14BB2485A6AB24C22F480326B
:1095D0005A62D3F89420844222F00102C3F8942006
:1095E00008BF4FF08042D3F8C0101CBF20F01F020C
:1095F000203A21F0FF0141F0A001B2F1005FC3F871
:10960000C0100CD3A44DA54E296842F00102C3F846
:1096100098100131C3F89C60C3F8A02029608442EF
:1096200010D09D489E4B0268984923F01F0343F0D9
:109630000303C1F89820C1F89C309A4B0132C1F85D
:10964000A0300260BFF34F8FBFF36F8F05228F4BA7
:10965000C3F894205A6A42F480325A62BFF34F8FA3
:10966000BFF36F8F3846FFF769FF9DF87130012B0C
:1096700014D19DF870308BB94FF480128A4B8B490E
:10968000586E03F580535A664B6BC60223F0E053C5
:1096900043F040634B635CBF854B5A664FF000421A
:1096A000844B07205A664AF6CD3203F50B23596CDA
:1096B0001A644FF0402201F00101D0635A6B12F09E
:1096C0000B0FFBD15A684FF0004022F4F87242F4BD
:1096D00080725A6040F209129A6040F203121A61D5
:1096E000744A50664AF6CD305A6C1864724B02F0D8
:1096F0000102586BC507FCD45868C40700F13D81CE
:10970000002A40F0418111B16B4B6C4A1A64664BE0
:109710001B6F03F00703032B3ED04FF48012654B01
:109720004FF0A0615A6645F60E02604BC3F88020E8
:10973000634A91624FF4803102F5805291629A6DD2
:10974000D603FCD45F4A1A6199695F4A01F000416F
:109750000A439A611A6A22F00F021A62996A5B4AF6
:109760000A4042F480329A62504A594B916D33EA72
:109770000101FBD14FF0807151488162136923F4DC
:10978000700343F4401313614FF000434FF48032F1
:109790008361504B99629A624FF480134FF4803882
:1097A000444E414D7366414B02209C6A03F5805341
:1097B000C3F82880FEF75CFD47480021FDF72AFB2F
:1097C0002B6F04F0807443F480632B67C6F87080BD
:1097D0002B6F23F0070343F003032B67FEF732FBE5
:1097E0004FF04023D3F8841011F01001FAD1D3F8D0
:1097F0008430C3F38113C3F10203002BC8BF0121DE
:10980000FDF708FBFEF704FB0220FEF731FD4FF4E5
:10981000C070FEF74BFB3149234A884294BF0020B9
:109820000120136F23F4806343EA802313678020B1
:10983000FEF73CFB2A4B98429EBF4FF480321C4BF4
:109840001A671CB94FF48032224B9A620123164AE0
:10985000244DC2F880326B60234B04241B6C06AA93
:109860002B660023352008A908938DF81840FEF7D1
:1098700045FD0623089A8DF8164012F4803F8DF8B6
:10988000173009AC40F0F78230E000BF00ED00E097
:10989000CC00002020010020A013002003000020A5
:1098A0003F010020E1FFFF3F008000400040004AF0
:1098B00000A0004000900040004009403254FFFFEB
:1098C0000050004A2008C00B3C3C3C02C7FFFEFE93
:1098D000030001000060004A00B4C40480F0FA02F2
:1098E000005A620200C001A80080E00F21462C202F
:1098F0000DF11702FEF702FD002864D03C200DF1A7
:10990000160207A9FEF7FAFC18B19DF81C0000F03A
:1099100001009DF82A3060F3000350E014B9FEF70F
:1099200077FE4BE6B4F1006FF9D3FCF759FD00F177
:1099300000608442F3D2FCF753FD04F1400300F1D0
:1099400000608342EBD82046FCF752FD0028E6D0A9
:1099500063696BB9FEF75CFEFCF76CFD0446FCF72F
:1099600069FD0B4B986023689D466368984725E620
:109970009DF87030012BEDD10EE6012405484460BE
:10998000186BC007FCD5BBE6034B044A1A64BAE661
:1099900000ED00E000600940004009403254FFFF44
:1099A000296E02F8011B013BFAD29DF8293063F0C1
:1099B0003F038DF829309DF82A3043F001038DF8DC
:1099C0002A30C34B5C6000244FF48071C14BC24A03
:1099D0005961C3E900229A601C82C04BC04A596198
:1099E000C048C3E900229A601C8200F059FCBE48BE
:1099F000BE4B21460360BE4BBE4E436000F0D0FC20
:109A0000B1A3D3E900233060CDE900234FF0FF3349
:109A10004FF0FF3200F0E4FF02224FF0FF313068D8
:109A200000F0E3FF3C2394221E93CDE91C329623E1
:109A3000B14D39463068CDE9204422941F9300F09F
:109A400099FD294630682C7000F0F7FF28B10123FA
:109A5000294630682B7000F0F0FF9D4C306801F013
:109A600074F8B4F900202978306800F029FC014628
:109A7000306800F0CFFF6468DFF808A3002C40F0E6
:109A8000FC815046FDF73CF9B37B64F30003B373EC
:109A900010229A4B9A4C83F82023002183F821232B
:109AA00004F1080083F8252383F8242383F8222374
:109AB00083F81F2383F823235C2207F030F842F257
:109AC0001073904DE360904B904AC4E9005342F20A
:109AD000015323814FF490733384012313701B22AD
:109AE0004FF000088A4DDFF8A0922A803E2005AA98
:109AF0000DF11501C9F800808DF81430FEF7FEFB5A
:109B000058B19DF81530CDF870803946C7F80480FB
:109B100030688DF8723000F065FF11230DF11302EB
:109B20000FA936208DF81330FEF7E8FB20233946C5
:109B300039200DF112028DF81230FEF7DFFB80BBE9
:109B4000744B9DF8132018681B791C903B71002AF8
:109B500000F09C811B2A28BF1B22531D8DF8123058
:109B60000FA9531C0DF175008DF8733006F0CAFF74
:109B700014A8FDF7C5F8684A9DF81230128824A988
:109B8000FA529A1C51FA82F20021149802F8201C11
:109B9000BDF85410093342F81F0C22F81B1C8DF835
:109BA000123020233A200DF1110214A98DF8113042
:109BB000FEF7A4FB48B9594B5A8B1B7FADF85020D8
:109BC0008DF8523003238DF8113000224FF0020837
:109BD000534B5448C3E90022534B80F80480036080
:109BE000FDF74EFA5148524B80F804800360102371
:109BF0000372FDF7E5FB4F484F4B80F8048003608C
:109C00004E4B80F80880C360A0F81080CDE9003882
:109C1000434690E806001430FDF7C6F99DF813108E
:109C2000002900F03E810FA84FF01008FDF7F2FB6D
:109C30004348444B80F804800360FDF721FA424812
:109C4000424B4FF6FE7B03600823414A0372C26019
:109C5000A0F810B080F80480FDF7B2FB3D483E4A02
:109C6000A0F810B002600C2202723C4A4FF0020BC6
:109C7000C26080F80480FDF7A3FB08233848394A06
:109C800003820260384A80F80480C26080F808B01D
:109C9000FDF796FB3548364B80F804800360354B62
:109CA00080F808B0C36001230382FDF789FB3248C6
:109CB000324B80F804800360314B80F808B0C360F9
:109CC00064E000BFAFF300800855005100000000C1
:109CD000FC010020C80C0020E00C0020B00B00208C
:109CE000C80B0020A00D010890130020E97C00089B
:109CF00084130020601300201200002000E100E027
:109D000044010020D6BE898E55555500E00D002037
:109D1000EE010020E10C0108EB0C0108740D0108B4
:109D200048070020C4130020EE0C0108880500201D
:109D3000F10C01085C070020F40C0108920D0108E9
:109D4000E4130020F70C0108E0050020080D0108CD
:109D50004986000838060020190D01087589000899
:109D6000800400202A0D01081C0E01089006002026
:109D70003B0D0108800E0108D80400204C0D01089D
:109D80005563000868130020200400204FF6FE737E
:109D90000382FDF715FBA748A74B80F804800360FA
:109DA000A64B80F808B0C3604FF6FE730382FDF740
:109DB00007FBA34BA34A1A604FF6FF729A809DF8E7
:109DC0001220202A05D8931D39469F48637506F056
:109DD00099FE9DF81120202A06D8931D9B4884F8EF
:109DE0003D3014A906F08EFEFDF760FF227C617CF9
:109DF000B2FA82F35B0963F30001237D617462F3BD
:109E00000303B27B02F0010262F386132375637DC4
:109E10000BB906236375BAF804108D4BB068C4F80B
:109E200016009980042194F83C3061F3030362F337
:109E3000861384F83C3094F83D3013B9062384F837
:109E40003D30B068BAF80420824BC4F83E009A80D6
:109E5000FDF78AFF804E814B1B782BB1DFF80C8217
:109E60004046FCF7B5FBF8B97D4A136923F00403BB
:109E7000136130BFEFE7224695E52068B060A28805
:109E8000A379AAF804208AF8063001E608238DF8A1
:109E90001230744B1A889B78ADF875208DF87730A6
:109EA00066E603216F48BFE6EFF3108472B6002325
:109EB00040461A460DF11901FDF7CFF92046FEF78D
:109EC00077F99DF8193013B10023C9F80030D9F89B
:109ED0000020EFF3108472B6C2F501739BB24046C6
:109EE00032440DF11901FDF7B8F903462046FEF79B
:109EF0005FF9D9F8000018440328C9F80000AFD969
:109F00003488231D9842ABD306D8708800230428D8
:109F100006D0062800F07E810023C9F800309FE7B4
:109F2000327904F1FF3A122A6B801FFA8AFA18D8A4
:109F3000012A19D9931E4C4F102B15D8DFE813F0C6
:109F4000160014002C00140045001400F700140043
:109F50009A001400140014001400140024011400CA
:109F6000CA00522A00F0D0800622AAE0BAF1020FFD
:109F700040F04E81B6F805400022B4F5007F28BFBE
:109F80004FF400740323114650463B70A7F801407C
:109F9000FEF75AF92C80BFE7BAF1040F40F0918028
:109FA000B6F80540A0B2FCF795F958B1027A052140
:109FB000022A0CBF01230223397041687B707C8028
:109FC000032076E06C800A227BE0DFF8A4B0073C37
:109FD000A4B20194CDF800B00223B6F80710B6F889
:109FE0000500ABF10202FDF715FD4FF6FF7A504573
:109FF000044604D17368C3F30F236B80E3E70023A7
:10A000000130CDE9003351460223ABF1020280B2A8
:10A01000FDF700FD072350451CBF00F1FF3080B263
:10A020003B70A7F80140A7F8030000220420114666
:10A030003FE000BF280400205D0D0108B971000851
:10A040005007002048070020600100208801002000
:10A050005A010020820100201C0200204407002039
:10A0600000ED00E0E70C0108F2010020B00B002039
:10A0700027020020BAF1020F40F0CA80B6F80500AE
:10A08000FCF728F900283BD0037B990714D52B88CF
:10A090000DF11A02013BADF81A30B6F805000BA914
:10A0A000FCF7DCFF024640B90B23BDF81A200B99E0
:10A0B0003B70FEF7C9F82FE752467368C3F30F23CE
:10A0C0006B800124584B307969881C705870598016
:10A0D0001A71AAE7B6F80500FCF7FCF880B1037B1B
:10A0E0001A070FD5E21E92B25049B6F80500FCF7E8
:10A0F0007FFF02460028E0D1132301463B70D8E7DA
:10A100000122DAE70322D8E7B6F80500FCF7E2F807
:10A1100000283FF401AF037B5B077FF5FDAEE21E35
:10A120004249B6F8050092B2FCF762FFF4E6631FFD
:10A130009BB2022B01D0102B6AD10022CDE9002264
:10A14000DBB23B4AB6F80710B6F80500FDF762FC33
:10A150004FF6FF73984204463FF44CAF2B880DF145
:10A160001A02043B0BA9ADF81A30FCF777FF024640
:10A1700008B16C80A5E70923BDF81A203B70931C39
:10A180000B997B707C801BE7631F9BB2022B01D075
:10A19000102B3DD14FF0000ACDE900AADBB20393AA
:10A1A000234AB6F80710B6F80500FDF733FC4FF662
:10A1B000FF7B58450446039B3FF41CAF01305946D2
:10A1C000CDE900AA1A4A80B2FDF724FC82462B880A
:10A1D000584518BF00F1FF3AA3F106030DF11A022A
:10A1E00020460BA918BF1FFA8AFAADF81A30FCF7FF
:10A1F00035FF02460028BCD11123BDF81A203B7060
:10A20000131D05200B997B707C80A7F804A050E7F4
:10A21000042256E7CDE90D33064B0BA90B9302231D
:10A220000C93FDF7E9FF77E6F201002023020020FE
:10A23000250200201000002007B5014601A8FFF705
:10A240007DF99DF8063001220B804FF480730020C9
:10A250004B80054B9B680A3303F01F0302FA03F39C
:10A260004B6003B05DF804FB0080E00FFEE70000E8
:10A2700008B5FDF7BBFD074B0748DA1C121AC11ED3
:10A2800022F00302994288BF0022044906F03AFCFA
:10A29000FBF792FF2801002010000020A4550108C0
:10A2A00038B50446054D00F0D9FB0FCC0FC594E836
:10A2B000030085E80300002038BD00BF0C15002016
:10A2C00047F6FF739A42F0B563D0022963D8334B47
:10A2D000CF0003EBC10013F831108478012913D1AA
:10A2E0000025C3781B1B9D4202D3E018C0B2F0BD0D
:10A2F000591B4668A3EB510136F911609642D4BF51
:10A300000D4601F1FF33EEE740680028EFD0B0F9C9
:10A310000010914204DBB0F902109142B8BF11461F
:10A3200082883B44FF2A19BFC8222826B0F906209C
:10A33000B0F90860A2EB01020CBF0125002592FBD9
:10A34000F6F25F782A447B1E934228BF13464FF4EF
:10A350007A7E00EBC305AE68EA88AC4611FB026268
:10A360001E4622EAE272013302F5FA729F42B2FB04
:10A37000FEF204D9BCF80CC008359445EBD200EBD2
:10A38000C6008088904228BF1046A04238BF2046B1
:10A39000ACE7FF20ABE70020A9E700BF0C150020C9
:10A3A000F8B50D4610B900242046F8BD0E4F3E68A2
:10A3B000002EF8D100F082F804460028F3D038606F
:10A3C00000F0B0F8204600F0A2F838B130463E6008
:10A3D00000F0A8F8204600F095F8E4E7002DE3D05F
:10A3E0002046A847E0E700BF241500200846114694
:10A3F00000F0AAB8F7B5114D04460F466E6801216A
:10A400000020CDE90032B047DDE90032064639468A
:10A41000204601F0BDFE044618B901202B6898477C
:10A4200004463EB100F0D2FB00B91CB100216B68BC
:10A4300008469847204603B0F0BD00BF2400002026
:10A44000F7B5104D04460F466B68012100200192BC
:10A45000984739460646019A204600F0C8FA044655
:10A4600018B901202B68984704463EB100F0AEFBB6
:10A4700000B91CB100216B6808469847204603B01C
:10A48000F0BD00BF2400002070470000431E0333CE
:10A4900006D8044B984228BF1846642838BF642069
:10A4A000704700BF40420F00431E012B03D9031F1A
:10A4B000584258417047012070470000F8B50546E2
:10A4C000FDF790FC07460E4B1E6826B93846FDF78F
:10A4D0006FFE344610E0B46884B1237C9C46DB07F1
:10A4E0000CD44CF0010C95E80F0084F810C084E8FF
:10A4F0000F003846FDF75CFE2046F8BD3668E4E7FD
:10A50000180000204FF4C872002106F008BB10B5F7
:10A510000446002100F07CFA2046BDE8104001F01E
:10A5200089BC000010B5044618B9054B054A1360F4
:10A5300010BD00F00BFDD4F89830002BF6D1F4E7F5
:10A5400089A400081C00002010B50C4600F014FD82
:10A550001CB100F077FD0128FBD1BDE81040024B93
:10A56000002103205B6818472400002000F078BE1B
:10A5700000F08CBE08B502460868FFF787FF086048
:10A580004868FFF783FF48608868FFF77FFF8860AF
:10A59000C868FFF77BFF0B69C860581C03D00B48E5
:10A5A000834228BF03460B614B69581C03D0074800
:10A5B000834228BF034688694B61FFF767FFBDE808
:10A5C00008408861104601F087BC00BF40420F0080
:10A5D0002DE9F84FD0F8903080460E4613B1838BAA
:10A5E0008B4279D0D8F88CB0BBF1000F44D0DBF8A7
:10A5F0000830002B40D0DBF80C20002A3CD0D8F8E3
:10A60000A0A0BAF1000F3AD04FF000094D464F46D6
:10A6100001E0DBF80830C5EBC50403EB8404E389F3
:10A620000135B34217D8238AB34214D3B4F9123098
:10A63000B8F9281003EAE372994254DD404698F8CD
:10A64000DC10FFF73DFE98F816308146834227461E
:10A6500004D9DBF80C209542DBD347B300233A46FC
:10A6600040461946D0470020A8F81C60C8F89070F2
:10A6700088F8E590BDE8F88F0320BDE8F88FD14653
:10A6800047F6FF7554465146C4EBC40703EB8707F2
:10A69000FB89B3421AD83B8AB34217D3B7F91220C9
:10A6A000AA4202EAE27204D14FF0FF09DBE701207F
:10A6B000E0E7404698F8DC10FFF702FE98F8163005
:10A6C00081468342CFD93946DBF80C200134A242BF
:10A6D00005D9DBF80830D7E70020BDE8F88F00295E
:10A6E000E5D00F46BFE72746B8E700BF2DE9F041A8
:10A6F000D0F8A08082B004461E460D4617468DF85D
:10A700000730B8F1000F2ED000220DF107031146DB
:10A71000C047D4F88C20194B20461A60184BD4F847
:10A7200090201A60174B1D6000F032FF05461FB9DC
:10A73000284602B0BDE8F081B0FA80F040F20D3258
:10A740003321400900F0DCF93146204601F0D0FA0F
:10A7500005460D4B20461B68D4F8901098472846B4
:10A7600002B0BDE8F081817D90F8E5303246994233
:10A7700028BF194600F090FECBE700BF2C15002043
:10A7800030150020281500201C0000202DE9F04382
:10A7900083B005460E4614461F4601F006FD01F043
:10A7A0000DFD00283CD1DFF81481D8F800301BB132
:10A7B000D5F88C20934220D000F044FC01283FD1F2
:10A7C000D8F80030002B37D01A68002A34D0D5F8DA
:10A7D0008C1009688A4245D0D5F890301A6828460E
:10A7E00001F07AFA28BB01243B462246314628462E
:10A7F00003B0BDE8F043FFF779BF2D4B1B68002B7A
:10A80000DAD0D5F890209342D6D12A4B1B689E42CD
:10A810000CD000F017FC0128E6D04FF0010911E040
:10A820000022234B1A6001F0C1FCBCE707B124BB36
:10A83000002003B0BDE8F083D5F88C301968CBE771
:10A840004FF00009012000F097FB00F0FBFB01280E
:10A85000FBD1194B002103205B689847B9F1000F29
:10A86000AED0C1E7124A1268A2B11168D5F89020A3
:10A8700012689142B7D05968B1E70122D5F8A040DB
:10A880008DF8072054B10022284611460DF1070328
:10A89000A047CDE7D5F890201268ECE7A97D95F8A0
:10A8A000E5302846994228BF194600F0F5FDBFE77C
:10A8B0003015002028150020240000202C15002031
:10A8C000F8B50E460546FDF78DFA3146074628468F
:10A8D000FFF77EFE044620B13846FDF769FC2046AE
:10A8E000F8BD0346024631462846FFF74FFF0446AF
:10A8F0003846FDF75DFC2046F8BD00BFF8B50646BA
:10A900000C4659B30B6843B11B68013326D0CB68A2
:10A910001BB18B68003B18BF01231846CB22412195
:10A9200000F0EEF8204602F0F5FB00234FF6FF7230
:10A930004FF01C0C86F8E830C6E92343E768D8B22C
:10A9400087420DD8154600230B4A294613600B4A4F
:10A9500030461360FFF7B4FF2846F8BD0023DCE75C
:10A96000A1680CFB0011CD89954202D2002DEAD0DE
:10A970002A460133E3E700BF2C15002030150020E4
:10A98000808B70470A7838B505461046FFF78CFD76
:10A9900060B14C782046FFF787FD38B1224353075A
:10A9A00004D42846BDE8384000F0A6BC012038BDDC
:10A9B000FFF7E8BF10B504460878FFF775FD58B1FA
:10A9C0004A781046FFF770FD30B1042A04D02046C3
:10A9D000BDE8104000F0C6BC012010BDFFF7EABF83
:10A9E00000F074BA084601F0F5BD00F0D3BB37B5EE
:10A9F00004460D460192FFF763FF38B92946204609
:10AA0000019A03B0BDE8304000F0AABB03B030BDEE
:10AA100001F0DCBB13B504460020019102F078FB85
:10AA2000D4F8A03033B92046019902B0BDE81040F7
:10AA300000F068BD022002B010BD38B50446488859
:10AA40000D4602F065FBD4F8A0302BB9294620460C
:10AA5000BDE8384000F0D0BC022038BD02F059BB40
:10AA600038B505460C46FDF7BDF9696B2B6B0C40FC
:10AA700023432B63FDF79CFB00200CB9002138BD5C
:10AA80004FF40071FBE701F0BFB801F0DEB8000041
:10AA90004FF4007307B50A490DF10602ADF8063010
:10AAA000FFF7F3FFBDF80630B3F5007F05D10228AC
:10AAB00008BF002003B05DF804FB0120FAE700BFE7
:10AAC000C81600200846114602F066BA01F088B8A0
:10AAD00038B50446154609B101F0D5F825B1204630
:10AAE000BDE8384001F0D2B838BD0000024B196013
:10AAF000024B1860FEE700BF20000020CC180020A9
:10AB000008B550B90548064B01601A60054B1A6834
:10AB1000054B1A601868FFF7E9FF08BD2000002008
:10AB2000C818002024150020CC180020837C03B115
:10AB300008470220704710B5044601F029FC204662
:10AB4000BDE81040032100F093BAFFF7F4BF000006
:10AB50000149FFF7EBBF00BF65C300080149FFF7DC
:10AB6000E5BF00BF39C3000813B5827C0C46C2B1F3
:10AB7000053A012A8CBF002201224968019201F0A6
:10AB800045FC206890FAA0F0000A00F033FCA17A9E
:10AB90002089019A81F0010101F068FC002002B0D7
:10ABA00010BD0220FBE71FB5ADF80C309DF8183042
:10ABB000CDE9011201A98DF80E30FFF7D5FF05B0E0
:10ABC0005DF804FB0020704700207047014B1878A7
:10ABD000704700BFD0180020024BD868C0F3036054
:10ABE000704700BF000002A870470000431C07D058
:10ABF0006FF0FF02034B10405A62A3F58053586276
:10AC0000704700BF00E000A8826B0E4B02F06002AC
:10AC1000402A12D0602A03D0202A11D1012206E056
:10AC200071B10A68012A0BD94A6942F00102C3F8DE
:10AC300088208022044B1A61704740F20112F6E727
:10AC40000022F4E7003F00B0000002A808B5094A5E
:10AC5000FFF7C2FF0B2806D00C2809D0092814BF23
:10AC60000020022008BD506C10F48030F0D1F9E7CC
:10AC70000220F7E7000002A84FF02A430121D3F891
:10AC80001821596352074FF4005148BF042203F5BD
:10AC90000053196344BFA3F58053C3F818217047CC
:10ACA00037B50C46194D41B90A46072105F004F99C
:10ACB000174B6C665C6003B030BD0722114605F08F
:10ACC000FBF80722134B0121DA60237901A885F8EC
:10ACD00064306379019305F049F9019BC2B2D34016
:10ACE00000F00F0040EA031085F86500A3790A4AD6
:10ACF00085F86630E37985F867302368AB66237999
:10AD00000133136205F0F8F8D5E700BF003F00B04B
:10AD1000643F00B0006000A8004000A800F01803E5
:10AD2000182B074B03D10022C3F88C207047010772
:10AD300001D50122F8E7C206F5D540F20112F3E78A
:10AD4000003F00B0D0F8943013B11A68032A10D82D
:10AD5000094BDB6BC3F3C20213F0380F03F007009B
:10AD600018BF504313F4E07FC3F3821203D0504363
:10AD70007047986A400E7047008001A8454B2DE946
:10AD8000F3411E6840F2022317460B4000F0010217
:10AD9000134305460C4650D08B0709D53E4BD3F8DC
:10ADA000083F03F0C003402B02BF02213B4B9960D8
:10ADB0004FF00008002A36D0002300220021012095
:10ADC000CDE9008803F014FF4FF0FF3003F000FAE4
:10ADD0004146F0830120FFF7B7FB314B5B6C580213
:10ADE00008D4B36B13F0800F4FF4001314BF2D4A37
:10ADF0002D4AD3642D490868FFF7F8FE4FF0FF3362
:10AE00000B602B4B1A68511C06D06FF07E4029490D
:10AE1000C863A1F58051CA634FF0FF321A60337CDA
:10AE200043F008033374A20507D501213046FFF72C
:10AE300017FE24F4007405430C43D6E940232A404E
:10AE4000234052EA030103D01B4930460968884772
:10AE5000FB070FD519491A4A0868002113681160C9
:10AE60000121184A117003B19847174B00210220A5
:10AE70005B68984717F00E0F08D040F271123B2123
:10AE8000002002B0BDE8F041FFF73ABE02B0BDE8D5
:10AE9000F08100BF24150020003000B0001002A88F
:10AEA000000002A8005001A8006001A830000020A6
:10AEB0003400002000E000A82C000020F018002042
:10AEC000EC180020E818002024000020F7B5D0E995
:10AED00040C71946DDE9086304468CEA060587EA9F
:10AEE00003001540084085EA0C057840C4E940504D
:10AEF00000250B4022F0010043F4007306EA000233
:10AF000043F00203CDE9005503F072FE237C9A075B
:10AF100017D5D4F804319B0513D54FF48031204662
:10AF2000FFF79EFD237C65F341032374D4E940239E
:10AF300002400B4052EA030103D00349204609684E
:10AF40008847002003B0F0BD2C00002038B1036812
:10AF5000044A002B08BF1346034A13607047014B95
:10AF6000FAE700BFE9AB00082C000020014B0020ED
:10AF7000D9677047003F00B003282DE9F3414AD854
:10AF8000264B1E5C264B1F5C264B13F80080FCF7FB
:10AF900029FF054604F008F8044640B100230022CA
:10AFA000CDE9003301200023002103F021FE3946C2
:10AFB000304604F019FA42463946304604F086FA23
:10AFC0001CB3194B5B6C58020AD4184B1B689B6B63
:10AFD00013F0800F4FF4001314BF154A154AD364C1
:10AFE00015490868FFF702FE4FF0FF330B60134B63
:10AFF0001A68511C06D06FF07E401149C863A1F554
:10B000008051CA634FF0FF321A60284602B0BDE893
:10B01000F041FDF7CDB802B0BDE8F081640F010842
:10B02000680F01086C0F0108000002A82415002019
:10B03000005001A8006001A830000020340000206A
:10B0400000E000A808B5FFF7C7FD0138C0B20B2823
:10B0500002D8054B185C08BD044B5B6913F0060F62
:10B060000CBF01200420F6E7700F010800C001A802
:10B0700031F00F0210B50BD1FFF7E4FF012809D121
:10B08000054CA36F23F00F0001431046A16710BDCC
:10B090000120FCE70220FAE7003F00B008B50D4BA5
:10B0A0005A6C12F0A00F13D19B6C5B0701D50120E5
:10B0B00008BD094BD3F8083F23F07F4323F0FF037B
:10B0C000002BF4D0FFF788FD092801D00C28EED121
:10B0D0000020EDE7000002A8003000B0024638B5BD
:10B0E00088B91C4B1B687BBB0125C1F11C04C4F152
:10B0F0002B03002BB8BF5B42232B29DCADB1164BD1
:10B100001970002038BDFFF79DFF01281ED1124B9A
:10B1100093F90040C4F11C03D2F894400CB194F9A7
:10B1200026401C1B0025641AE1E7D174FCF75AFE87
:10B130000A4AE402136A04F4FF2423F4FF231C43A5
:10B140001462FDF735F8DCE70320DBE70220D9E7DE
:10B150000120D7E724150020E018002000C000A837
:10B16000114603F07FBF0000094B08461A6D91029B
:10B170000BD4D3F84021D20708D4D3F8803013F48D
:10B18000706F14BF0120002070470120704700BF7E
:10B19000004001A870B515460C46826B064682EA4F
:10B1A00005030B4053408363274A01F00B0323EA56
:10B1B0000501D1642B40A2F58052D364630710D5FA
:10B1C0000121FFF7D1FF60B104F0AEF84FF4007336
:10B1D00015F0040F14BF1D4A1D4A136504221D4BB0
:10B1E0005A64E00606D515F0100F14BF00221B228A
:10B1F000194B5A65210613D52A061BD54FF40012A8
:10B20000124BDA64FCF7EEFD0E210546032002F036
:10B210007FFF40F20122104B2846DA62FCF7C8FF9C
:10B2200014F0600F04D03046D6F89410FFF7ECFC11
:10B23000002070BD094B5B6C5B025EBF4FF40012D7
:10B24000034BDA64ECE700BF006000A8005001A8DF
:10B25000006001A8002002A8004000A8000002A889
:10B26000014BD86C02F066BF004001A8D0F89430C2
:10B270004BB11A68022A06D993F8250028B11B6A37
:10B28000B3FBF0F07047FFF771B97047014BD86C12
:10B2900002F078BF004001A8D0F8942072B1136882
:10B2A000022B0BD9536A13F47F4FC3F3072007D047
:10B2B000126ADBB25343B3FBF0F07047FFF758B9A3
:10B2C00070470000837C5A1F012A01D9082B05D141
:10B2D0004B7B2BB1012B05D0022B05D0FFF7DCBF38
:10B2E00002487047024870470248704720A1070093
:10B2F00048E8010040420F0070B50E46FCF772FDB1
:10B300000546FFF7A3FC044620B12846FCF750FF92
:10B31000204670BD04F008F8104B3278D3F8083F8F
:10B32000022A23F0F00315D0042A0CBF02220022C7
:10B3300043EA02137278022A0ED0042A0CBF0222BA
:10B34000002243EA8213054AC2F8083F0422044B54
:10B350005A64DAE70122EBE70122F2E7003000B09D
:10B36000002002A838B50D46FCF73CFD04461E4AF5
:10B37000FFF732FC062826D804282BD8032829D02A
:10B3800003F0D2FF194B2A78D3F8083F022A23F0A2
:10B390000F0324D0042A0CBF0222002213436A7830
:10B3A000022A1ED0042A0CBF0222002243EA820392
:10B3B0000E4A2046C2F8083F04220D4B5A64FCF79F
:10B3C000F7FE00200AE00728DAD1D2F86831002B16
:10B3D000CED1D5E72046FCF7EBFE022038BD012296
:10B3E000DCE70122E2E700BF000002A8003000B065
:10B3F000002002A802F044BFF8B50E780446022EE1
:10B400000D4690F8DC700AD1002001F00BFF0028F7
:10B410003BD1012001F006FF002818BF012630466D
:10B4200001F000FF98B384F8DC60AB8804F1DC061F
:10B43000A4F8E0306B883046A4F8DE30AB88A36413
:10B44000FF23E37501F090FE054608BB304601F08E
:10B45000DFFE0546E0B9D4F8903053B194F8DC1023
:10B46000B94206D02046B3F91220FEF729FF84F82E
:10B47000E500204601F040FF0121A4F8E00004F1BE
:10B48000A40003F07FF92846F8BD0026C7E7012590
:10B49000032384F8DC30F6E770B5054690F8DC004D
:10B4A0000C4603282AD0FF292AD001F017FF0646B0
:10B4B00095F8DC0001F000FFA04210D323469E4225
:10B4C00095F8DC0011DB01F009FF04462046EC751D
:10B4D00002F056F8A0F1FF035842584170BD95F8AC
:10B4E000DC0001F0E9FE0346E9E701F0E5FEA042D9
:10B4F000ECD295F8DC0001F0DFFEE6E70220EDE794
:10B500000120EBE738B590F8DC300446032B3BD044
:10B51000D0F890508175A5B3D0F8A030BBB990F8A1
:10B52000E5308B4219D300222046FFF7B5FF0546D0
:10B5300058B9164B1B78012B07D8204601F0DCFECA
:10B54000012104F1A40003F01DF9284638BDB0F92B
:10B550002820B5F912309A42E5DD0022204694F801
:10B56000E510FFF799FF05460028EED1C4F89000DA
:10B570002046FFF705FA01462046BDE83840FFF7B0
:10B580009FB9FF23C375E0E70225DEE742000020F4
:10B59000F0B5036C0446012B8DB000F09580704926
:10B5A00002F056FBD4F89070A68BC4F894004FB10B
:10B5B0003B683BB15B682BB11A68032A02D99D6ACC
:10B5C0006D0E12E0FCF70EFCD4F890500146C4F862
:10B5D00090702046FFF7B6FB0246C4F8905008462C
:10B5E0001546FCF7E5FDD4F89400BB89EAB2F31ADE
:10B5F0009BB28DF81620D7E90115ADF8143005FB84
:10B600000311584B04911B6898421AD058B1036833
:10B610004BB103693BB1D3E900129B68C4E929121D
:10B62000C4F8AC3004E00023C4E92933C4F8AC30DA
:10B6300001462046FFF7E8FAD4F8943004999DF8C3
:10B6400016200B93204606AB02F080FE002846D160
:10B65000454A4649FFF7C0FA431EDBB20B2B39D8E7
:10B66000D35C012BF6D1424A4249536CD801FCD439
:10B670000B6CDB07F9D406A903A802F09FFF70BB8F
:10B68000237C60F34103237400F082FFD4F89030F0
:10B690005A69431E1568DBB2FD2B019522D8536809
:10B6A000012802933CD10546D91C29D8024601A99C
:10B6B000204600F043FF3DB9D4F804319B0535D452
:10B6C000237C43F00203237420460DB0BDE8F04014
:10B6D00000F000BF4B6913F0060FC4D0BAE7022098
:10B6E0000DB0F0BDEF1C14D9234B01351B6818BFFA
:10B6F0000125DE1C2ED9FF2853682DD00293DAE7EE
:10B700001D4A0133536808BF0025DA1C1FD8029375
:10B71000CCE701255368FF280293C5D00020C5E778
:10B72000024601A9204600F009FFCDE74FF4803121
:10B730002046FFF795F9D4E9402302400B4052EA36
:10B740000301C1D00D49204609688847BCE7FF289E
:10B75000B1D1E3E70193DDE701200293A4E700BF45
:10B76000FC4F00B0DC180020700F010800C001A8D9
:10B77000000002A800C002A8500000202C000020F9
:10B780004FF4807104F0ACBB38B590F8E840054642
:10B79000ACB1FCF727FB1F22094B013C1A65144092
:10B7A000A3F580531C65D5F8EC20A3F580539A6768
:10B7B000D5F8F020DA67BDE83840FCF7F9BC38BDB1
:10B7C000006001A82DE9F0418B780546012B0F465A
:10B7D000A6B000F21281CB78012B00F20E8108781E
:10B7E000012800F20A814A78042A00F2068112B187
:10B7F000012B40F00281012848D03868C5F8F400D8
:10B800007C78002C45D101F03DF94FF060527C4B23
:10B81000C3F88C4003F59033DA647A4B1B7813B18C
:10B820000622794B9A674FF08052784B1A65A3F540
:10B8300000535B6C5B0208D4AB6B13F0800F4FF4CA
:10B84000001314BF724A734AD3644FF48072724B70
:10B85000C3F81821C3F81421BB78002B40F0C48032
:10B860004FF02A4341F6FF721A63FB78002B40F039
:10B87000BE804FF02A4341F6FF721A676022674B81
:10B88000DA6403F5E833402200205A6426B0BDE8AC
:10B89000F0814FF02A431E6D5B6D1E4416F00306C7
:10B8A000DAD11822314608A80DF1100805F037F951
:10B8B000013C102231464046CDE90166039605F071
:10B8C0002EF9032CC8D8DFE804F0197C0269544D26
:10B8D00019AC0FCD0FC40FCD0FC40FCD0FC42B6803
:10B8E0002C2200210EA8236005F019F907238DF8FA
:10B8F00038300B238DF86430022313E0494D19AC26
:10B900000FCD0FC40FCD0FC40FCD0FC42B682C2249
:10B9100000210EA8236005F002F907238DF83830C6
:10B920004FF400730F9301234FF40012384CE2647C
:10B93000002B4AD03C4B08221A930023CDE9042364
:10B94000ADF866302093069319AB08930EAB0993BC
:10B9500001ABCDE90A3801F095F808A800F078FEAF
:10B9600001F034F801F01AF8254A936F23F006032A
:10B9700043F0040393674FF080522C4B1A6503F099
:10B980001BFB00283FF468AF4FF48073224AC2F8D3
:10B990001431A2F58052C2F818315DE7244D19AC7C
:10B9A0000FCD0FC40FCD0FC40FCD0FC42B682C22A9
:10B9B00000210EA8236005F0B2F807238DF8383077
:10B9C0009AE74FF0C0560023AEE701F05BF84FF066
:10B9D0006052104B46F40016DA640422A3F590334B
:10B9E000E664C3F88C20BFE7FFF746F93DE7602225
:10B9F000054BDA6403F5D83345E7012046E700BF7D
:10BA0000004000A8D8180020006000A8002002A86C
:10BA1000005001A8006001A8002000AA005000A862
:10BA2000C80E0108FC0E0108800000AA001002A840
:10BA3000300F01082DE9F74F06461546084619B99B
:10BA4000012003B0BDE8F08F002AF9D0032904D803
:10BA5000002101F0A1FA0028F2D082780488077949
:10BA600090F805B0C388B0F9000002F00701002883
:10BA7000C0F2AF80A1F1070CDCF1000040EB0C003C
:10BA80000529287294BF0020C2F30010C2F3801C65
:10BA90006872900985F80CC000F00200C2F3C00C77
:10BAA00040EA0C00C2F340126873AA73EF73B26BE2
:10BAB000D00600F188800639012900F28480464AC8
:10BAC0000127526D4FF02A42116DD26C063C02F0F4
:10BAD000070206329740013F3C4041F0005818F8F9
